:020000020000FC
:100000000C9406000C9454000C9452000FEF0DBF9A
:1000100008E00EBF0FEF04B90FEF07B900EF0AB900
:100020000BE00093690003E00DBB59EF64E270E35D
:1000300089E192E1A2E046E0B9EFC0E0D0E0789437
:100040000E945600D0FD0C942000B5130C942C0097
:1000500055B9B62F0C942000B6130C94330065B933
:10006000B72F0C942000B7130C943A0075B9B82F31
:100070000C942000B8130C94410085B9B92F0C944E
:100080002000B9130C94480095B9BA2F0C942000A5
:10009000A5B9B52FC395C8B9C4130C942000C0E00E
:1000A0000C942000D1E01895D0E018951FE028ECC2
:0A00B0002A95F1F71A95D9F7089583
:00000001FF
