:020000020000FC
:100000000C9406000C942C000C9430000FEF04B9F3
:1000100007B903E00AB90FE00093690003E00DBBE4
:10002000789450E060E070E055B968B97BB926E09B
:1000300033E14EEA4A95F1F73A95E1F72A95D1F77F
:1000400000C000E00DBB55B968B97BB91AD055277F
:10005000662777270C94170055276627772718956A
:1000600053950BF01895B89463958FE36813189522
:100070006627739584E078131895552766277727A8
:1000800018952BE036E24EE54A95F1F73A95E1F7FF
:0C0090002A95D1F700C003E00DBB0895D5
:00000001FF
