:020000020000FC
:1000000000C04FEF44B9442740E04AB9552755B9DD
:10001000499BFCCF0C941100499B0C9406000C9456
:10002000080055E555B9489B0E940B0148990E946C
:100030001201499BEBCF5AEA55B9489B0E940B012C
:1000400048990E94120155E555B9489B0E940B0141
:1000500048990E941201499BD9CF5AEA55B9489B49
:100060000E940B0148990E94120155E555B9489B21
:100070000E940B0148990E941201499BC7CF00C002
:100080005CEC55B9499BC2CF489B0E940B01489933
:100090000E94120156E655B9499BB8CF489B0E9471
:1000A0000B0148990E94120153E355B9499BAECF09
:1000B000489B0E940B0148990E94120159E955B9C9
:1000C000499BA4CF489B0E940B0148990E941201B2
:1000D0005CEC55B9499B9ACF489B0E940B0148990B
:1000E0000E94120100C050E855B9499B8FCF489B30
:1000F0000E940B0148990E94120150E455B9499B96
:1001000085CF489B0E940B0148990E94120150E242
:1001100055B9499B7BCF489B0E940B0148990E948F
:10012000120150E155B9499B71CF489B0E940B01C8
:1001300048990E94120158E055B9499B67CF489BE6
:100140000E940B0148990E94120154E055B9499B45
:100150005DCF489B0E940B0148990E94120152E01A
:1001600055B9499B53CF489B0E940B0148990E9467
:10017000120151E055B9499B49CF489B0E940B01A0
:1001800048990E94120100C051E855B9499B3ECFE1
:10019000489B0E940B0148990E94120152E455B9F4
:1001A000499B34CF489B0E940B0148990E94120141
:1001B00054E255B9499B2ACF489B0E940B014899AC
:1001C0000E94120158E155B9499B20CF489B0E94DB
:1001D0000B0148990E94120154E255B9499B16CF70
:1001E000489B0E940B0148990E94120152E455B9A4
:1001F000499B0CCF489B0E940B0148990E94120119
:1002000051E855B9499B02CF489B0E940B01489980
:100210000E941201FDCE28E635EE499BF7CE25E07F
:100220003FE042EF499BF2CE64E0499BEFCE4A9516
:10023000E1F73A95D1F72A95C1F70895499BE6CEA3
:100240006A950E940D01D1F708953A95F1F72A9524
:04025000E1F7089535
:00000001FF
