:020000020000FC
:1000000000C04FE744B94AB950E07FE386E090E290
:10001000A0E09BB975B90E9427000E9459001F9962
:10002000F0CF4F990C941A009BB975B953950E9463
:100030001D00F1CF4F9BEFCFFDCF23E03CE34CEC15
:100040004A95F1F73A95E1F72A95D1F7089560E0DE
:10005000561711F47FE3089561E0561711F476E026
:10006000089562E0561711F47BE5089563E0561792
:1000700011F47FE4089564E0561711F476E60895CC
:1000800065E0561711F47DE6089566E0561711F401
:100090007DE7089567E0561711F477E0089568E06A
:1000A000561711F47FE7089569E0561701F577E6D2
:1000B000089560E0A61711F490E2089561E0A61794
:1000C00011F499E7089562E0A61711F494E40895F5
:1000D00063E0A61711F490E5089564E0A61711F403
:1000E00099E1089565E0A61711F492E1089577E685
:0A00F00050E0A395A8138FCF84CF32
:00000001FF
